Frame 1: 54 bytes on wire (432 bits), 54 bytes captured (432 bits) on interface 0
    Interface id: 0
    WTAP_ENCAP: 1
    Arrival Time: May 13, 2004 06:17:08.222534000 EDT
    [Time shift for this packet: 0.000000000 seconds]
    Epoch Time: 1084443428.222534000 seconds
    [Time delta from previous captured frame: 0.000000000 seconds]
    [Time delta from previous displayed frame: 0.000000000 seconds]
    [Time since reference or first frame: 0.000000000 seconds]
    Frame Number: 1
    Frame Length: 54 bytes (432 bits)
    Capture Length: 54 bytes (432 bits)
    [Frame is marked: False]
    [Frame is ignored: False]
    [Protocols in frame: eth:ip:tcp]
Ethernet II, Src: Xerox_00:00:00 (00:00:01:00:00:00), Dst: fe:ff:20:00:01:00 (fe:ff:20:00:01:00)
    Destination: fe:ff:20:00:01:00 (fe:ff:20:00:01:00)
        Address: fe:ff:20:00:01:00 (fe:ff:20:00:01:00)
        .... ..1. .... .... .... .... = LG bit: Locally administered address (this is NOT the factory default)
        .... ...0 .... .... .... .... = IG bit: Individual address (unicast)
    Source: Xerox_00:00:00 (00:00:01:00:00:00)
        Address: Xerox_00:00:00 (00:00:01:00:00:00)
        .... ..0. .... .... .... .... = LG bit: Globally unique address (factory default)
        .... ...0 .... .... .... .... = IG bit: Individual address (unicast)
    Type: IP (0x0800)
Internet Protocol Version 4, Src: 145.254.160.237 (145.254.160.237), Dst: 65.208.228.223 (65.208.228.223)
    Version: 4
    Header length: 20 bytes
    Differentiated Services Field: 0x00 (DSCP 0x00: Default; ECN: 0x00: Not-ECT (Not ECN-Capable Transport))
        0000 00.. = Differentiated Services Codepoint: Default (0x00)
        .... ..00 = Explicit Congestion Notification: Not-ECT (Not ECN-Capable Transport) (0x00)
    Total Length: 40
    Identification: 0x0f44 (3908)
    Flags: 0x02 (Don't Fragment)
        0... .... = Reserved bit: Not set
        .1.. .... = Don't fragment: Set
        ..0. .... = More fragments: Not set
    Fragment offset: 0
    Time to live: 128
    Protocol: TCP (6)
    Header checksum: 0x91f0 [correct]
        [Good: True]
        [Bad: False]
    Source: 145.254.160.237 (145.254.160.237)
    Destination: 65.208.228.223 (65.208.228.223)
    [Source GeoIP: Unknown]
    [Destination GeoIP: Unknown]
Transmission Control Protocol, Src Port: tip2 (3372), Dst Port: http (80), Seq: 1, Ack: 1, Len: 0
    Source port: tip2 (3372)
    Destination port: http (80)
    [Stream index: 0]
    Sequence number: 1    (relative sequence number)
    Acknowledgment number: 1    (relative ack number)
    Header length: 20 bytes
    Flags: 0x010 (ACK)
        000. .... .... = Reserved: Not set
        ...0 .... .... = Nonce: Not set
        .... 0... .... = Congestion Window Reduced (CWR): Not set
        .... .0.. .... = ECN-Echo: Not set
        .... ..0. .... = Urgent: Not set
        .... ...1 .... = Acknowledgment: Set
        .... .... 0... = Push: Not set
        .... .... .0.. = Reset: Not set
        .... .... ..0. = Syn: Not set
        .... .... ...0 = Fin: Not set
    Window size value: 9660
    [Calculated window size: 9660]
    [Window size scaling factor: -1 (unknown)]
    Checksum: 0x7964 [validation disabled]
        [Good Checksum: False]
        [Bad Checksum: False]

0000  fe ff 20 00 01 00 00 00 01 00 00 00 08 00 45 00   .. ...........E.
0010  00 28 0f 44 40 00 80 06 91 f0 91 fe a0 ed 41 d0   .(.D@.........A.
0020  e4 df 0d 2c 00 50 38 af fe 14 11 4c 61 8c 50 10   ...,.P8....La.P.
0030  25 bc 79 64 00 00                                 %.yd..

