Frame 1: 62 bytes on wire (496 bits), 62 bytes captured (496 bits) on interface 0
    Interface id: 0
    WTAP_ENCAP: 1
    Arrival Time: May 13, 2004 06:17:07.311224000 EDT
    [Time shift for this packet: 0.000000000 seconds]
    Epoch Time: 1084443427.311224000 seconds
    [Time delta from previous captured frame: 0.000000000 seconds]
    [Time delta from previous displayed frame: 0.000000000 seconds]
    [Time since reference or first frame: 0.000000000 seconds]
    Frame Number: 1
    Frame Length: 62 bytes (496 bits)
    Capture Length: 62 bytes (496 bits)
    [Frame is marked: False]
    [Frame is ignored: False]
    [Protocols in frame: eth:ip:tcp]
Ethernet II, Src: Xerox_00:00:00 (00:00:01:00:00:00), Dst: fe:ff:20:00:01:00 (fe:ff:20:00:01:00)
    Destination: fe:ff:20:00:01:00 (fe:ff:20:00:01:00)
        Address: fe:ff:20:00:01:00 (fe:ff:20:00:01:00)
        .... ..1. .... .... .... .... = LG bit: Locally administered address (this is NOT the factory default)
        .... ...0 .... .... .... .... = IG bit: Individual address (unicast)
    Source: Xerox_00:00:00 (00:00:01:00:00:00)
        Address: Xerox_00:00:00 (00:00:01:00:00:00)
        .... ..0. .... .... .... .... = LG bit: Globally unique address (factory default)
        .... ...0 .... .... .... .... = IG bit: Individual address (unicast)
    Type: IP (0x0800)
Internet Protocol Version 4, Src: 145.254.160.237 (145.254.160.237), Dst: 65.208.228.223 (65.208.228.223)
    Version: 4
    Header length: 20 bytes
    Differentiated Services Field: 0x00 (DSCP 0x00: Default; ECN: 0x00: Not-ECT (Not ECN-Capable Transport))
        0000 00.. = Differentiated Services Codepoint: Default (0x00)
        .... ..00 = Explicit Congestion Notification: Not-ECT (Not ECN-Capable Transport) (0x00)
    Total Length: 48
    Identification: 0x0f41 (3905)
    Flags: 0x02 (Don't Fragment)
        0... .... = Reserved bit: Not set
        .1.. .... = Don't fragment: Set
        ..0. .... = More fragments: Not set
    Fragment offset: 0
    Time to live: 128
    Protocol: TCP (6)
    Header checksum: 0x91eb [correct]
        [Good: True]
        [Bad: False]
    Source: 145.254.160.237 (145.254.160.237)
    Destination: 65.208.228.223 (65.208.228.223)
    [Source GeoIP: Unknown]
    [Destination GeoIP: Unknown]
Transmission Control Protocol, Src Port: tip2 (3372), Dst Port: http (80), Seq: 951057939, Len: 0
    Source port: tip2 (3372)
    Destination port: http (80)
    [Stream index: 0]
    Sequence number: 951057939
    Header length: 28 bytes
    Flags: 0x002 (SYN)
        000. .... .... = Reserved: Not set
        ...0 .... .... = Nonce: Not set
        .... 0... .... = Congestion Window Reduced (CWR): Not set
        .... .0.. .... = ECN-Echo: Not set
        .... ..0. .... = Urgent: Not set
        .... ...0 .... = Acknowledgment: Not set
        .... .... 0... = Push: Not set
        .... .... .0.. = Reset: Not set
        .... .... ..1. = Syn: Set
            [Expert Info (Chat/Sequence): Connection establish request (SYN): server port http]
                [Message: Connection establish request (SYN): server port http]
                [Severity level: Chat]
                [Group: Sequence]
        .... .... ...0 = Fin: Not set
    Window size value: 8760
    [Calculated window size: 8760]
    Checksum: 0xc30c [validation disabled]
        [Good Checksum: False]
        [Bad Checksum: False]
    Options: (8 bytes), Maximum segment size, No-Operation (NOP), No-Operation (NOP), SACK permitted
        Maximum segment size: 1460 bytes
            Kind: MSS size (2)
            Length: 4
            MSS Value: 1460
        No-Operation (NOP)
            Type: 1
                0... .... = Copy on fragmentation: No
                .00. .... = Class: Control (0)
                ...0 0001 = Number: No-Operation (NOP) (1)
        No-Operation (NOP)
            Type: 1
                0... .... = Copy on fragmentation: No
                .00. .... = Class: Control (0)
                ...0 0001 = Number: No-Operation (NOP) (1)
        TCP SACK Permitted Option: True
            Kind: SACK Permission (4)
            Length: 2

0000  fe ff 20 00 01 00 00 00 01 00 00 00 08 00 45 00   .. ...........E.
0010  00 30 0f 41 40 00 80 06 91 eb 91 fe a0 ed 41 d0   .0.A@.........A.
0020  e4 df 0d 2c 00 50 38 af fe 13 00 00 00 00 70 02   ...,.P8.......p.
0030  22 38 c3 0c 00 00 02 04 05 b4 01 01 04 02         "8............
